{
  "_format": "hh3-artifact-1",
  "contractName": "PaymentChannel",
  "sourceName": "contracts/PaymentChannel.sol",
  "abi": [
    {
      "anonymous": false,
      "inputs": [
        {
          "indexed": true,
          "internalType": "address",
          "name": "user",
          "type": "address"
        },
        {
          "indexed": false,
          "internalType": "uint256",
          "name": "amount",
          "type": "uint256"
        }
      ],
      "name": "Deposited",
      "type": "event"
    },
    {
      "anonymous": false,
      "inputs": [
        {
          "indexed": true,
          "internalType": "address",
          "name": "user",
          "type": "address"
        },
        {
          "indexed": false,
          "internalType": "uint256",
          "name": "amount",
          "type": "uint256"
        }
      ],
      "name": "Withdrawn",
      "type": "event"
    },
    {
      "inputs": [
        {
          "internalType": "address",
          "name": "",
          "type": "address"
        }
      ],
      "name": "balances",
      "outputs": [
        {
          "internalType": "uint256",
          "name": "",
          "type": "uint256"
        }
      ],
      "stateMutability": "view",
      "type": "function"
    },
    {
      "inputs": [],
      "name": "deposit",
      "outputs": [],
      "stateMutability": "payable",
      "type": "function"
    },
    {
      "inputs": [
        {
          "internalType": "address",
          "name": "user",
          "type": "address"
        }
      ],
      "name": "getBalance",
      "outputs": [
        {
          "internalType": "uint256",
          "name": "",
          "type": "uint256"
        }
      ],
      "stateMutability": "view",
      "type": "function"
    },
    {
      "inputs": [
        {
          "internalType": "uint256",
          "name": "amount",
          "type": "uint256"
        }
      ],
      "name": "withdraw",
      "outputs": [],
      "stateMutability": "nonpayable",
      "type": "function"
    },
    {
      "stateMutability": "payable",
      "type": "receive"
    }
  ],
  "bytecode": "0x6080604052348015600e575f5ffd5b5061039d8061001c5f395ff3fe608060405260043610610041575f3560e01c806327e235e3146100545780632e1a7d4d14610091578063d0e30db0146100b0578063f8b2cb4f146100b8575f5ffd5b366100505761004e6100ec565b005b5f5ffd5b34801561005f575f5ffd5b5061007f61006e3660046102e3565b5f6020819052908152604090205481565b60405190815260200160405180910390f35b34801561009c575f5ffd5b5061004e6100ab366004610310565b6101a8565b61004e6100ec565b3480156100c3575f5ffd5b5061007f6100d23660046102e3565b6001600160a01b03165f9081526020819052604090205490565b5f341161014e5760405162461bcd60e51b815260206004820152602560248201527f4465706f73697420616d6f756e74206d75737420626520677265617465722074604482015264068616e20360dc1b60648201526084015b60405180910390fd5b335f908152602081905260408120805434929061016c90849061033b565b909155505060405134815233907f2da466a7b24304f47e87fa2e1e5a81b9831ce54fec19055ce277ca2f39ba42c49060200160405180910390a2565b5f81116102085760405162461bcd60e51b815260206004820152602860248201527f5769746864726177616c20616d6f756e74206d75737420626520677265617465604482015267072207468616e20360c41b6064820152608401610145565b335f9081526020819052604090205481111561025d5760405162461bcd60e51b8152602060048201526014602482015273496e73756666696369656e742062616c616e636560601b6044820152606401610145565b335f908152602081905260408120805483929061027b908490610354565b9091555050604051339082156108fc029083905f818181858888f193505050501580156102aa573d5f5f3e3d5ffd5b5060405181815233907f7084f5476618d8e60b11ef0d7d3f06914655adb8793e28ff7f018d4c76d505d59060200160405180910390a250565b5f602082840312156102f3575f5ffd5b81356001600160a01b0381168114610309575f5ffd5b9392505050565b5f60208284031215610320575f5ffd5b5035919050565b634e487b7160e01b5f52601160045260245ffd5b8082018082111561034e5761034e610327565b92915050565b8181038181111561034e5761034e61032756fea2646970667358221220f05aef36295de25e55fcd0897553a4f443b8373ca8b54cfce5fa8b747d31159564736f6c634300081c0033",
  "linkReferences": {},
  "deployedLinkReferences": {},
  "immutableReferences": {},
  "inputSourceName": "project/contracts/PaymentChannel.sol",
  "buildInfoId": "solc-0_8_28-19665c16ef0ed4a3c2f7a3ea523e6b7dfaf3a9ad"
}