{
  "_format": "hh3-artifact-1",
  "contractName": "PaymentChannel",
  "sourceName": "contracts/PaymentChannel.sol",
  "abi": [
    {
      "anonymous": false,
      "inputs": [
        {
          "indexed": true,
          "internalType": "address",
          "name": "user",
          "type": "address"
        },
        {
          "indexed": false,
          "internalType": "uint256",
          "name": "amount",
          "type": "uint256"
        }
      ],
      "name": "Deposited",
      "type": "event"
    },
    {
      "anonymous": false,
      "inputs": [
        {
          "indexed": true,
          "internalType": "address",
          "name": "user",
          "type": "address"
        },
        {
          "indexed": false,
          "internalType": "uint256",
          "name": "amount",
          "type": "uint256"
        }
      ],
      "name": "Withdrawn",
      "type": "event"
    },
    {
      "inputs": [
        {
          "internalType": "address",
          "name": "",
          "type": "address"
        }
      ],
      "name": "balances",
      "outputs": [
        {
          "internalType": "uint256",
          "name": "",
          "type": "uint256"
        }
      ],
      "stateMutability": "view",
      "type": "function"
    },
    {
      "inputs": [],
      "name": "deposit",
      "outputs": [],
      "stateMutability": "payable",
      "type": "function"
    },
    {
      "inputs": [
        {
          "internalType": "address",
          "name": "user",
          "type": "address"
        }
      ],
      "name": "getBalance",
      "outputs": [
        {
          "internalType": "uint256",
          "name": "",
          "type": "uint256"
        }
      ],
      "stateMutability": "view",
      "type": "function"
    },
    {
      "inputs": [
        {
          "internalType": "uint256",
          "name": "amount",
          "type": "uint256"
        }
      ],
      "name": "withdraw",
      "outputs": [],
      "stateMutability": "nonpayable",
      "type": "function"
    },
    {
      "inputs": [
        {
          "internalType": "address payable",
          "name": "to",
          "type": "address"
        },
        {
          "internalType": "uint256",
          "name": "amount",
          "type": "uint256"
        }
      ],
      "name": "withdrawTo",
      "outputs": [],
      "stateMutability": "nonpayable",
      "type": "function"
    },
    {
      "stateMutability": "payable",
      "type": "receive"
    }
  ],
  "bytecode": "0x6080604052348015600e575f5ffd5b506105088061001c5f395ff3fe60806040526004361061004c575f3560e01c8063205c28781461005f57806327e235e31461007e5780632e1a7d4d146100bb578063d0e30db0146100da578063f8b2cb4f146100e2575f5ffd5b3661005b57610059610116565b005b5f5ffd5b34801561006a575f5ffd5b506100596100793660046103e7565b6101d2565b348015610089575f5ffd5b506100a9610098366004610411565b5f6020819052908152604090205481565b60405190815260200160405180910390f35b3480156100c6575f5ffd5b506100596100d5366004610433565b6102d6565b610059610116565b3480156100ed575f5ffd5b506100a96100fc366004610411565b6001600160a01b03165f9081526020819052604090205490565b5f34116101785760405162461bcd60e51b815260206004820152602560248201527f4465706f73697420616d6f756e74206d75737420626520677265617465722074604482015264068616e20360dc1b60648201526084015b60405180910390fd5b335f908152602081905260408120805434929061019690849061045e565b909155505060405134815233907f2da466a7b24304f47e87fa2e1e5a81b9831ce54fec19055ce277ca2f39ba42c49060200160405180910390a2565b5f81116101f15760405162461bcd60e51b815260040161016f90610477565b335f908152602081905260409020548111156102465760405162461bcd60e51b8152602060048201526014602482015273496e73756666696369656e742062616c616e636560601b604482015260640161016f565b335f90815260208190526040812080548392906102649084906104bf565b90915550506040516001600160a01b0383169082156108fc029083905f818181858888f1935050505015801561029c573d5f5f3e3d5ffd5b5060405181815233907f7084f5476618d8e60b11ef0d7d3f06914655adb8793e28ff7f018d4c76d505d59060200160405180910390a25050565b5f81116102f55760405162461bcd60e51b815260040161016f90610477565b335f9081526020819052604090205481111561034a5760405162461bcd60e51b8152602060048201526014602482015273496e73756666696369656e742062616c616e636560601b604482015260640161016f565b335f90815260208190526040812080548392906103689084906104bf565b9091555050604051339082156108fc029083905f818181858888f19350505050158015610397573d5f5f3e3d5ffd5b5060405181815233907f7084f5476618d8e60b11ef0d7d3f06914655adb8793e28ff7f018d4c76d505d59060200160405180910390a250565b6001600160a01b03811681146103e4575f5ffd5b50565b5f5f604083850312156103f8575f5ffd5b8235610403816103d0565b946020939093013593505050565b5f60208284031215610421575f5ffd5b813561042c816103d0565b9392505050565b5f60208284031215610443575f5ffd5b5035919050565b634e487b7160e01b5f52601160045260245ffd5b808201808211156104715761047161044a565b92915050565b60208082526028908201527f5769746864726177616c20616d6f756e74206d75737420626520677265617465604082015267072207468616e20360c41b606082015260800190565b818103818111156104715761047161044a56fea2646970667358221220e2462ae5e4e7a5d2ce240090972a12c5890e05865db58d4d218f513ba957354164736f6c634300081c0033",
  "linkReferences": {},
  "deployedLinkReferences": {},
  "immutableReferences": {},
  "inputSourceName": "project/contracts/PaymentChannel.sol",
  "buildInfoId": "solc-0_8_28-d58c6b8e3ddc706eca258c5e5f7611aaae81dc83"
}